{
  "_format": "hh-sol-artifact-1",
  "contractName": "TokenVault",
  "sourceName": "contracts/TokenVault.sol",
  "abi": [
    {
      "inputs": [],
      "stateMutability": "nonpayable",
      "type": "constructor"
    },
    {
      "inputs": [
        {
          "internalType": "address",
          "name": "owner",
          "type": "address"
        }
      ],
      "name": "OwnableInvalidOwner",
      "type": "error"
    },
    {
      "inputs": [
        {
          "internalType": "address",
          "name": "account",
          "type": "address"
        }
      ],
      "name": "OwnableUnauthorizedAccount",
      "type": "error"
    },
    {
      "anonymous": false,
      "inputs": [
        {
          "indexed": true,
          "internalType": "address",
          "name": "previousOwner",
          "type": "address"
        },
        {
          "indexed": true,
          "internalType": "address",
          "name": "newOwner",
          "type": "address"
        }
      ],
      "name": "OwnershipTransferred",
      "type": "event"
    },
    {
      "inputs": [
        {
          "internalType": "address",
          "name": "",
          "type": "address"
        },
        {
          "internalType": "address",
          "name": "",
          "type": "address"
        }
      ],
      "name": "balances",
      "outputs": [
        {
          "internalType": "uint256",
          "name": "",
          "type": "uint256"
        }
      ],
      "stateMutability": "view",
      "type": "function"
    },
    {
      "inputs": [
        {
          "internalType": "address",
          "name": "tokenAddress",
          "type": "address"
        },
        {
          "internalType": "uint256",
          "name": "amount",
          "type": "uint256"
        }
      ],
      "name": "deposit",
      "outputs": [],
      "stateMutability": "nonpayable",
      "type": "function"
    },
    {
      "inputs": [
        {
          "internalType": "address",
          "name": "tokenAddress",
          "type": "address"
        }
      ],
      "name": "getContractTokenBalance",
      "outputs": [
        {
          "internalType": "uint256",
          "name": "",
          "type": "uint256"
        }
      ],
      "stateMutability": "view",
      "type": "function"
    },
    {
      "inputs": [],
      "name": "owner",
      "outputs": [
        {
          "internalType": "address",
          "name": "",
          "type": "address"
        }
      ],
      "stateMutability": "view",
      "type": "function"
    },
    {
      "inputs": [],
      "name": "renounceOwnership",
      "outputs": [],
      "stateMutability": "nonpayable",
      "type": "function"
    },
    {
      "inputs": [
        {
          "internalType": "address",
          "name": "newOwner",
          "type": "address"
        }
      ],
      "name": "transferOwnership",
      "outputs": [],
      "stateMutability": "nonpayable",
      "type": "function"
    },
    {
      "inputs": [
        {
          "internalType": "address",
          "name": "tokenAddress",
          "type": "address"
        },
        {
          "internalType": "uint256",
          "name": "amount",
          "type": "uint256"
        }
      ],
      "name": "withdraw",
      "outputs": [],
      "stateMutability": "nonpayable",
      "type": "function"
    }
  ],
  "bytecode": "0x608060405234801561001057600080fd5b5033600073ffffffffffffffffffffffffffffffffffffffff168173ffffffffffffffffffffffffffffffffffffffff16036100845760006040517f1e4fbdf700000000000000000000000000000000000000000000000000000000815260040161007b919061019e565b60405180910390fd5b6100938161009960201b60201c565b506101b9565b60008060009054906101000a900473ffffffffffffffffffffffffffffffffffffffff169050816000806101000a81548173ffffffffffffffffffffffffffffffffffffffff021916908373ffffffffffffffffffffffffffffffffffffffff1602179055508173ffffffffffffffffffffffffffffffffffffffff168173ffffffffffffffffffffffffffffffffffffffff167f8be0079c531659141344cd1fd0a4f28419497f9722a3daafe3b4186f6b6457e060405160405180910390a35050565b600073ffffffffffffffffffffffffffffffffffffffff82169050919050565b60006101888261015d565b9050919050565b6101988161017d565b82525050565b60006020820190506101b3600083018461018f565b92915050565b610c84806101c86000396000f3fe608060405234801561001057600080fd5b506004361061007d5760003560e01c80638da5cb5b1161005b5780638da5cb5b146100d8578063c23f001f146100f6578063f2fde38b14610126578063f3fef3a3146101425761007d565b806314205e281461008257806347e7ef24146100b2578063715018a6146100ce575b600080fd5b61009c6004803603810190610097919061082f565b61015e565b6040516100a99190610875565b60405180910390f35b6100cc60048036038101906100c791906108bc565b6101e6565b005b6100d6610400565b005b6100e0610414565b6040516100ed919061090b565b60405180910390f35b610110600480360381019061010b9190610926565b61043d565b60405161011d9190610875565b60405180910390f35b610140600480360381019061013b919061082f565b610462565b005b61015c600480360381019061015791906108bc565b6104e8565b005b6000808290508073ffffffffffffffffffffffffffffffffffffffff166370a08231306040518263ffffffff1660e01b815260040161019d919061090b565b602060405180830381865afa1580156101ba573d6000803e3d6000fd5b505050506040513d601f19601f820116820180604052508101906101de919061097b565b915050919050565b6000829050818173ffffffffffffffffffffffffffffffffffffffff1663dd62ed3e33306040518363ffffffff1660e01b81526004016102279291906109a8565b602060405180830381865afa158015610244573d6000803e3d6000fd5b505050506040513d601f19601f82011682018060405250810190610268919061097b565b10156102a9576040517f08c379a00000000000000000000000000000000000000000000000000000000081526004016102a090610a2e565b60405180910390fd5b8073ffffffffffffffffffffffffffffffffffffffff166323b872dd3330856040518463ffffffff1660e01b81526004016102e693929190610a4e565b6020604051808303816000875af1158015610305573d6000803e3d6000fd5b505050506040513d601f19601f820116820180604052508101906103299190610abd565b610368576040517f08c379a000000000000000000000000000000000000000000000000000000000815260040161035f90610b36565b60405180910390fd5b81600160003373ffffffffffffffffffffffffffffffffffffffff1673ffffffffffffffffffffffffffffffffffffffff16815260200190815260200160002060008573ffffffffffffffffffffffffffffffffffffffff1673ffffffffffffffffffffffffffffffffffffffff16815260200190815260200160002060008282546103f49190610b85565b92505081905550505050565b610408610679565b6104126000610700565b565b60008060009054906101000a900473ffffffffffffffffffffffffffffffffffffffff16905090565b6001602052816000526040600020602052806000526040600020600091509150505481565b61046a610679565b600073ffffffffffffffffffffffffffffffffffffffff168173ffffffffffffffffffffffffffffffffffffffff16036104dc5760006040517f1e4fbdf70000000000000000000000000000000000000000000000000000000081526004016104d3919061090b565b60405180910390fd5b6104e581610700565b50565b6104f0610679565b600082905060008173ffffffffffffffffffffffffffffffffffffffff166370a08231306040518263ffffffff1660e01b8152600401610530919061090b565b602060405180830381865afa15801561054d573d6000803e3d6000fd5b505050506040513d601f19601f82011682018060405250810190610571919061097b565b9050828110156105b6576040517f08c379a00000000000000000000000000000000000000000000000000000000081526004016105ad90610c05565b60405180910390fd5b8173ffffffffffffffffffffffffffffffffffffffff1663a9059cbb33856040518363ffffffff1660e01b81526004016105f1929190610c25565b6020604051808303816000875af1158015610610573d6000803e3d6000fd5b505050506040513d601f19601f820116820180604052508101906106349190610abd565b610673576040517f08c379a000000000000000000000000000000000000000000000000000000000815260040161066a90610b36565b60405180910390fd5b50505050565b6106816107c4565b73ffffffffffffffffffffffffffffffffffffffff1661069f610414565b73ffffffffffffffffffffffffffffffffffffffff16146106fe576106c26107c4565b6040517f118cdaa70000000000000000000000000000000000000000000000000000000081526004016106f5919061090b565b60405180910390fd5b565b60008060009054906101000a900473ffffffffffffffffffffffffffffffffffffffff169050816000806101000a81548173ffffffffffffffffffffffffffffffffffffffff021916908373ffffffffffffffffffffffffffffffffffffffff1602179055508173ffffffffffffffffffffffffffffffffffffffff168173ffffffffffffffffffffffffffffffffffffffff167f8be0079c531659141344cd1fd0a4f28419497f9722a3daafe3b4186f6b6457e060405160405180910390a35050565b600033905090565b600080fd5b600073ffffffffffffffffffffffffffffffffffffffff82169050919050565b60006107fc826107d1565b9050919050565b61080c816107f1565b811461081757600080fd5b50565b60008135905061082981610803565b92915050565b600060208284031215610845576108446107cc565b5b60006108538482850161081a565b91505092915050565b6000819050919050565b61086f8161085c565b82525050565b600060208201905061088a6000830184610866565b92915050565b6108998161085c565b81146108a457600080fd5b50565b6000813590506108b681610890565b92915050565b600080604083850312156108d3576108d26107cc565b5b60006108e18582860161081a565b92505060206108f2858286016108a7565b9150509250929050565b610905816107f1565b82525050565b600060208201905061092060008301846108fc565b92915050565b6000806040838503121561093d5761093c6107cc565b5b600061094b8582860161081a565b925050602061095c8582860161081a565b9150509250929050565b60008151905061097581610890565b92915050565b600060208284031215610991576109906107cc565b5b600061099f84828501610966565b91505092915050565b60006040820190506109bd60008301856108fc565b6109ca60208301846108fc565b9392505050565b600082825260208201905092915050565b7f496e73756666696369656e7420616c6c6f77616e63652e000000000000000000600082015250565b6000610a186017836109d1565b9150610a23826109e2565b602082019050919050565b60006020820190508181036000830152610a4781610a0b565b9050919050565b6000606082019050610a6360008301866108fc565b610a7060208301856108fc565b610a7d6040830184610866565b949350505050565b60008115159050919050565b610a9a81610a85565b8114610aa557600080fd5b50565b600081519050610ab781610a91565b92915050565b600060208284031215610ad357610ad26107cc565b5b6000610ae184828501610aa8565b91505092915050565b7f5472616e73666572206661696c65642e00000000000000000000000000000000600082015250565b6000610b206010836109d1565b9150610b2b82610aea565b602082019050919050565b60006020820190508181036000830152610b4f81610b13565b9050919050565b7f4e487b7100000000000000000000000000000000000000000000000000000000600052601160045260246000fd5b6000610b908261085c565b9150610b9b8361085c565b9250828201905080821115610bb357610bb2610b56565b5b92915050565b7f496e73756666696369656e7420636f6e74726163742062616c616e63652e0000600082015250565b6000610bef601e836109d1565b9150610bfa82610bb9565b602082019050919050565b60006020820190508181036000830152610c1e81610be2565b9050919050565b6000604082019050610c3a60008301856108fc565b610c476020830184610866565b939250505056fea2646970667358221220fa3ee094a4c8ef3a0906f35fb86e17bc0a7a5fa29090027bf6d168861ec67b3a64736f6c63430008180033",
  "linkReferences": {},
  "deployedLinkReferences": {}
}